:020000040800F2
:10000000E80F00209D010008A5010008A7010008D5
:10001000A9010008AB010008AD01000800000000C4
:10002000000000000000000000000000AF01000818
:10003000B101000800000000B3010008B50100088C
:10004000B7010008B7010008B7010008B7010008B0
:10005000B7010008B7010008B7010008B7010008A0
:10006000B7010008B70100081D1C0008B70100080F
:10007000B7010008B7010008B7010008B701000880
:10008000B7010008B7010008B7010008B701000870
:10009000B7010008B7010008B7010008B701000860
:1000A000F13B0008113C0008B7010008B701000847
:1000B000B7010008B7010008B7010008B701000840
:1000C000B7010008B7010008B7010008B701000830
:1000D000B7010008D14100082D420008B70100080F
:1000E000B7010008B7010008B7010008B701000810
:1000F000B7010008B7010008B7010008B701000800
:10010000B7010008B7010008B7010008B7010008EF
:10011000C1410008B70100083D3C0008693C0008E7
:10012000B7010008B7010008B7010008B7010008CF
:10013000B7010008B7010008B7010008B7010008BF
:10014000B7010008B7010008B7010008B7010008AF
:10015000B7010008B7010008B7010008B70100089F
:10016000B7010008B7010008B7010008B70100088F
:10017000B7010008B7010008B7010008B70100087F
:10018000B7010008B7010008DFF80CD000F094F9BF
:1001900000480047F54A0008E80F0020064880475D
:1001A00006480047FEE7FEE7FEE7FEE7FEE7FEE75C
:1001B000FEE7FEE7FEE7FEE7153B000889010008C1
:1001C00040EA01039B0703D009E008C9121F08C0D9
:1001D000042AFAD203E011F8013B00F8013B521E59
:1001E000F9D27047D2B201E000F8012B491EFBD2D0
:1001F00070470022F6E710B513460A460446194632
:10020000FFF7F0FF204610BD421C10F8011B00292B
:10021000FBD1801A704710B5002200E0521C835CAD
:100220008C5CA34201D1002BF8D1D8B2E1B2401AC4
:1002300010BD2DE9F04D81EA030404F0004B21F0DC
:10024000004514464FF0000A23F0004150EA050231
:1002500020D054EA01021DD0C5F30A570246C5F367
:100260001303C1F31300C1F30A5640F4801543F49D
:100270008013A7EB0608101BD64608F2FD3873EB77
:10028000050002D308F1010801E092185B41B8F1C2
:10029000000F03DA00200146BDE8F08D00204FF486
:1002A0008011064684460EE0171B73EB050705D345
:1002B000121B63EB050306434CEA010C49084FEAA5
:1002C000300092185B4150EA0107EDD152EA030079
:1002D00012D082EA040083EA0501084305D0101B0E
:1002E000AB4106D20122002306E000224FF000437A
:1002F00002E06FF0010253101AEB06004CEB0851BC
:1003000010EB0A0041EB0B01BDE8F04D00F076B8B0
:1003100000F0004230F000400AD0C10D01F56071DC
:10032000C0F3160042EA0151C2084007114370476A
:1003300000200146704701F0004330B421F0004135
:1003400050EA010206D00A0DA2F56072C1F3130152
:10035000002A02DC30BC00207047440F44EAC1048C
:10036000C100E01830BC00EBC25000F010B8202AE9
:1003700004DB203A21FA02F00021704721FA02F34F
:10038000D040C2F12002914008431946704700292D
:10039000A8BF7047401C490008BF20F0010070470B
:1003A00010B4B0FA80FC00FA0CF050EA010404BF6B
:1003B00010BC704749B1CCF1200421FA04F411FAC1
:1003C0000CF118BF012121430843A3EB0C01CB1D05
:1003D0004FEA00614FEA102042BF002010BC704776
:1003E00000EBC35010440029A4BF10BC7047401C50
:1003F000490008BF20F0010010BC704710B5141E62
:1004000073F1000408DA401C41F1000192185B41CD
:100410001A4301D120F0010010BD2DE9F04D9246A4
:100420009B4611B1B1FA81F202E0B0FA80F22032BB
:10043000904600F053F804460F4640EA0A0041EAAD
:100440000B0153465A46084313D0114653EA0100A4
:1004500019D0C8F140025046FFF789FF05460E4605
:1004600050465946424600F039F8084305D001206D
:1004700004E020463946BDE8F08D0020054346EAF9
:10048000E0762C4337430A986305E40AA0EB0800A2
:100490000022FD0A44EA47540A3002D500200146F2
:1004A000E9E7010510196941DDE9084500196941CD
:1004B000BDE8F04DA2E70000064C074D06E0E068FD
:1004C00040F0010394E8070098471034AC42F6D39B
:1004D000FFF75EFEC44D0008E44D0008202A04DB4F
:1004E000203A00FA02F1002070479140C2F1200347
:1004F00020FA03F319439040704770B58D1810F837
:10050000014B14F0030201D110F8012B231106D185
:1005100010F8013B03E010F8016B01F8016B521E6B
:10052000F9D1ABB110F8012B04F00C048A1A0C2C91
:1005300003D0A2EB84129B1C08E010F8014BA2EB45
:100540000422F8E712F8014B01F8014B5B1EF9D5C4
:10055000A942D4D3002070BD21B1826842F00102CB
:10056000826003E0826822F001028260704700002E
:100570000021084A1168084A1140D0E900231A43B3
:1005800083681A43C3681A431143044AC2F8041328
:100590007047000004230140E030FCFF00200140D0
:1005A00000B58DB00121084602F038FE0121080295
:1005B00002F064FE4020019003208DF80800002026
:1005C0008DF80B0001A9174801F065FC002003908D
:1005D00004900690059003A8FFF7CAFF01210802C6
:1005E00002F05CFE00214FF4807002F057FE002004
:1005F0008DF8200007908DF8210009900B900120C4
:100600008DF8300007A9084800F010F806230122F1
:100610001946054800F034F801210348FFF79CFF14
:100620000DB000BD000002400020014030B5024680
:10063000002000235068104C20400D790C6844EADB
:1006400005242043506090680C4C2040D1E90354AD
:100650002C438D682C434D7944EA45042043906037
:10066000D06A20F470000C7D641EE4B2234340EA9B
:100670000350D06230BD0000FFFEFFFCFDF7FFC05D
:10068000F0B504460D4600200021092D11DDE0687B
:10069000A5F10A0606EB4607072606FA07F1884386
:1006A000A5F10A0606EB460603FA06F10843E060E8
:1006B0000CE0206905EB4507072606FA07F1884399
:1006C00005EB450603FA06F108432061072A0FDA15
:1006D000606B561E06EB86071F2606FA07F1884355
:1006E000561E06EB860605FA06F10843606322E013
:1006F0000D2A0FDA206BD61F06EB86071F2606FA97
:1007000007F18843D61F06EB860605FA06F1084373
:10071000206310E0E06AA2F10D0606EB86071F26B3
:1007200006FA07F18843A2F10D0606EB860605FAE4
:1007300006F10843E062F0BD10B500F009F80120B1
:1007400003F0A4F900200149086010BDBC02434237
:100750001CB50121422002F061FD402000900120E3
:100760008DF8040000208DF8060003208DF80500A8
:1007700069460A4801F08FFB4FF4004000900120C9
:100780008DF8040000208DF8060003208DF8050088
:100790006946024801F07FFB1CBD000000040240D6
:1007A00010B502F0C7FE012008490860022004F0DD
:1007B00069F90748D0F81C02C4B200200349086058
:1007C000022004F05FF9204610BD000098824042EC
:1007D0000080404270B5044602F0BCFE00251BE0DC
:1007E00004F080061EB101200E49086002E00020DE
:1007F0000C4908606006040E01200A49091F0860C0
:10080000022004F03FF900200749C1F898020220B5
:1008100004F038F9681CC5B2082DE1DBFFF7C0FF12
:1008200070BD00009C8240420080404210B502F042
:1008300091FE0120094908600949C1F89802042085
:1008400004F020F9002005490860042004F01AF99A
:1008500000200349C1F8980210BD00009C8240426C
:100860000080404210B502F075FE00200749086084
:1008700001200749C1F89802042004F003F901207F
:1008800002490860042004F0FDF810BD9C8240423B
:100890000080404210B504460B48844209D1012132
:1008A000480602F0DBFC00214FF0007002F0D6FC9D
:1008B00008E00121880602F0D1FC00214FF08060A1
:1008C00002F0CCFC10BD00000064004010B5002117
:1008D000837A012202FA03F13D4A126842F00102D2
:1008E0003B4B1A603A4A1C3212688A43384B1C331D
:1008F0001A60027BCAB9364A0C3212688A43344BFA
:100900000C331A604288C38842EA0343304A4032BB
:10091000847A42F834300288838842EA03432C4ABE
:100920004032847A02EBC4025360027B012A19D15F
:10093000274A0C3212680A43254B0C331A6042884E
:10094000038842EA0343224A4032847A42F8343030
:10095000C288838842EA03431D4A4032847A02EB0C
:10096000C4025360C27A3AB9194A121D12688A4306
:10097000174B1B1D1A6006E0154A121D12680A4328
:10098000134B1B1D1A60028932B9114A14321268C6
:100990008A430F4B14331A600289012A06D10C4A8C
:1009A000143212680A430A4B14331A60427B012A3C
:1009B00006D1074A1C3212680A43054B1C331A60E1
:1009C000034A126822F00102014B1A6010BD0000B8
:1009D000006600401AB143690B43436102E043697A
:1009E0008B434361704730B50246002000231468F2
:1009F00024F002041460146844F00104146000E060
:100A00005B1C546804F001041CB94FF6FF74A34248
:100A1000F6D1546804F001040CB900206CE08C7924
:100A2000012C04D1146844F08004146003E01468BD
:100A300024F080041460CC79012C04D1146844F0B3
:100A40004004146003E0146824F0400414600C7A3D
:100A5000012C04D1146844F02004146003E01468ED
:100A600024F0200414604C7A012C04D1146844F062
:100A70001004146003E0146824F0100414608C7AED
:100A8000012C04D1146844F00804146003E01468D5
:100A900024F008041460CC7A012C04D1146844F0CA
:100AA0000404146003E0146824F0040414608C78D7
:100AB000A407CD7844EA05640D7944EA05444D79EC
:100AC00044EA05540D886D1E2C43D461146824F04B
:100AD00001041460002300E05B1C546804F001046E
:100AE0001CB14FF6FF74A342F6D1546804F0010420
:100AF0000CB1002000E0012030BD0246002019B9F1
:100B0000D36803F0030006E0012903D1136903F061
:100B1000030000E00020704710B500F5D87303EB28
:100B200001131B6803F004031372137A53B900F521
:100B3000D87303EB01131B6840F2FF7404EA5353AC
:100B4000136009E000F5D87303EB01131B686FF025
:100B5000604404EAD303536000F5D87303EB011338
:100B60001B6803F00203537200F5D87303EB011303
:100B70005B6803F00F03937200F5D87303EB011366
:100B80005B681B0AD37400F5D87303EB01139B68F1
:100B9000D37200F5D87303EB01139B681C0A14731E
:100BA00000F5D87303EB01139B681C0C547300F51C
:100BB000D87303EB01139B681B0E937300F5D87376
:100BC00003EB0113DB68D37300F5D87303EB011358
:100BD000DB681C0A147400F5D87303EB0113DB689F
:100BE0001C0C547400F5D87303EB0113DB681B0E67
:100BF000937421B9C36843F02003C36003E0036921
:100C000043F02003036110BD10B502460020936835
:100C100003F08063B3F1806F00D110E0936803F0BC
:100C20000063B3F1006F01D1012008E0936803F085
:100C30008053B3F1805F01D1022000E0042004283A
:100C400074D002F5C07303EB00131B6803F00104BA
:100C500002F5C07303EB00131C600B7A7BB94B7A6F
:100C60000C8843EA445302F5C07404EB0014246872
:100C7000234302F5C07404EB0014236010E00B7AE8
:100C80004C6843EAC4034C7A234302F5C07404EB76
:100C900000142468234302F5C07404EB001423609D
:100CA0008B7A03F00F038B7202F5C07303EB001312
:100CB0005B6823F00F0402F5C07303EB00135C6064
:100CC00002F5C07303EB00135B688C7A234302F5D3
:100CD000C07404EB001463608B7B1C064B7B44EAFE
:100CE00003440B7B44EA0323CC7A234302F5C0740C
:100CF00004EB0014A3608B7C1C064B7C44EA034489
:100D00000B7C44EA0323CC7B234302F5C07404EB41
:100D10000014E36002F5C07303EB00131B6843F09B
:100D2000010402F5C07303EB00131C6010BD00004A
:100D300010B50246002321B1012907D002290FD1A5
:100D400009E090681D4C00EA04030BE090681C4C1D
:100D500000EA040306E090681A4C00EA040301E08C
:100D6000002300BF00BF184C181BA34216D007DC9D
:100D700083B16FF08060184470B1022818D111E07F
:100D8000B0F5007F10D0114C204448B1B0F5003FC1
:100D90000ED10BE002230DE000230BE0002309E05D
:100DA000002307E0012305E0012303E0012301E024
:100DB000002300BF00BFD8B210BD00000300000434
:100DC0000003000800000310000100080001FFF705
:100DD0002DE9F0410746884615460421052000F01C
:100DE000DFFE0021012003F0A5FD80210A2002F092
:100DF000C7FD002405E0395D092003F09BFD601C60
:100E0000C4B24445F7DB0321012003F093FDFF2426
:100E100000BF052002F0E5FA0646601EC4B21CB110
:100E200006F004000028F4D0222002F0DAFA28703C
:100E3000212002F0D6FA68700020BDE8F0810000A1
:100E40002DE9FF4705460E464FF0000A06B10DB9E1
:100E50004FF0010A9448007800F00F00032801DDEC
:100E60004FF0010A90480078C0F30019BAF1000F62
:100E700019D000208DF80A008DF80B0001208DF8A4
:100E80000C000020ADF80000ADF80200ADF8040041
:100E9000ADF80600ADF8080001208DF80D00684699
:100EA000FFF714FDFEE00020ADF8080001208DF8EA
:100EB0000D004FF000080024F2E07B48007800F0BD
:100EC0000F0030B101283BD002287BD0032874D119
:100ED0009CE000208DF80B008DF80C0035F8240004
:100EE0004B460022114600F0E1F8ADF8020005EB98
:100EF000840148884B460022114600F0D7F8ADF82F
:100F00000600601CC0B20446B04213DA35F8240073
:100F10004B460022114600F0C9F8ADF8000005EB81
:100F2000840148884B460022114600F0BFF8ADF816
:100F3000040004E00020ADF80600ADF804009CE0D9
:100F400001208DF80B0000208DF80C0035F82400EE
:100F50004B460022114600F0A9F8ADF80200601CD3
:100F6000C0B20446B04207DA35F824004B460022EE
:100F7000114600F09BF800E00020ADF80600601C70
:100F8000C0B20446B04207DA35F824004B460022CE
:100F9000114600F08BF800E00020ADF80000601C66
:100FA000C0B20446B04209DA35F824004B460022AC
:100FB000114600F07BF802E004E051E00020ADF8BB
:100FC00004005AE000208DF80B0001208DF80C0081
:100FD00035F824004B460022114600F081F8074600
:100FE000B8B2ADF80200380CADF8000005EB840192
:100FF00048884B460022114600F072F80746B8B206
:10100000ADF80600380CADF8040036E001208DF88C
:101010000B008DF80C0035F824004B4600221146D9
:1010200000F05EF80746B8B2ADF80200380CADF833
:101030000000601CC0B20446B04208DA05EB84012F
:1010400048884B460022114600F04AF800E0002094
:101050000746B8B2ADF80600380CADF804000CE055
:101060000020ADF80200ADF80000ADF80600ADF8C4
:10107000040034464FF0010A00BF00BF8DF80A801B
:101080006846FFF723FCB44202DA601CC4B200E0F9
:1010900007E008F10100C0B280460D2800DB00E047
:1010A0000BE700BFBDE8FF870005002010B5044630
:1010B000C4F309040AB1102000E0002002460BB17D
:1010C000082000E00020034613B1C1F3C13000E066
:1010D0000020014642EA44101843084380B210BD84
:1010E00010B50446C4F309040AB1022000E0002050
:1010F00002460BB1042000E00020034613B1880330
:10110000C00A00E00020014642EA44301843084388
:1011100010BD000010B500210148FFF7EEFC10BD26
:101120000064004070B50446002554B10021064813
:10113000FFF7E3FC054625B1224600210248FFF7F0
:10114000EBFC284670BD0000006400402DE9F0472C
:1011500006460C4617469846DDF820904FF0000AE8
:1011600015480760C0F804800020134908724872CF
:1011700008468472224631460B30FFF721F80E49AB
:101180000E48FFF741FD0546042D09D04FF0010A36
:1011900029460A48FFF7CCFD012801D14FF0020A89
:1011A000BAF1010F04DBB9F1000F01D089F800504A
:1011B0005046BDE8F0870000FC07002000640040B6
:1011C0000448006800F0E05008B10120704700209A
:1011D000FCE700000864004010B501E000F006F8EC
:1011E000FFF798FF0028F9D110BD000010B5244882
:1011F000FFF798FF2248C07C20B101280AD00228BE
:1012000018D10FE01E48827A00F10B011D4800F052
:10121000B6FD24E01A48827A00F10B011A4800F06A
:10122000AEFD1CE01648827A00F10B01174800F071
:10123000A6FD14E01248C07C03280FDB1048C07CD8
:1012400006280BDC0E48C07CC01E114901EBC00013
:101250000B490B310A6802604968416000BF00BF5A
:101260000748C07C062809DC0548C07C094951F8BC
:1012700020000949096808430749086010BD0000BB
:1012800070090020240800203408002054080020A1
:1012900084090020B44C00080405002000B5034A6E
:1012A0005178107801F0B2F800BD000084090020E8
:1012B000F8B5FFF785FF00285FD00026002559E02C
:1012C0002E4890F9000030B101280ED002281ED01F
:1012D000032840D12DE000F05DF80746002F03DB26
:1012E0000126F8B200F07AF839E0082224492548AE
:1012F00000F030FDC4B24CB10126234800234FF466
:101300002072214600901E48FFF720FF27E00822A8
:101310001B491E4800F01EFDC4B24CB101261A48FC
:1013200000234FF42872214600901548FFF70EFF66
:1013300015E008221249164800F00CFDC4B24CB169
:101340000126114800234FF47072214600900C488A
:10135000FFF7FCFE03E0FF200849087000BF00BF54
:1013600006480078401C40B20449087006B103E00A
:10137000681CC5B2042DA3DD00BFF8BD38050020F0
:1013800008050020440800203905002064080020DA
:10139000240800204FF0FF30002109E001EB81021A
:1013A000054B13F822200AB148B203E04A1CD1B21F
:1013B0000729F3DB00BF7047A4090020002007E0E5
:1013C000002100EB8002044B03F82210411CC8B23C
:1013D0000728F5DB70470000A4090020F8B5044693
:1013E000002004EB84050E4E06EB850500902B696A
:1013F00004EB840506EB8505EA6804EB840516F822
:10140000251004EB840506EB8505681CFFF79EFE9E
:10141000002004EB8401324602F82100F8BD0000F0
:10142000A40900202DE9F04104460F4615461E464A
:10143000DDF81880072C1ADA04EB84000D4901F856
:10144000205004EB84010B4A02EB8101481C2A4620
:101450003946FEF7B5FE04EB8400064901EB800037
:10146000C66004EB840001EB8000C0F81080BDE88A
:10147000F0810000A409002010B50D4A32210D486A
:1014800000F02AF80C4A32210C4800F025F80C4AEA
:1014900032210C4800F020F80B4A32210B4800F0B2
:1014A0001BF80B4A32210B4800F016F810BD000063
:1014B0007408002024080020A6080020340800201A
:1014C000D8080020440800200A0900205408002001
:1014D0003C0900206408002070B504460E461546FD
:1014E0002660E5600021204600F083FC70BD00000E
:1014F00038B5FFF771FE68E0FFF76EFE002462E08A
:10150000344850F82400344909680840002858D06D
:10151000072C4DD2DFE804F0040C182427394600CC
:1015200000BF69462D4800F076FC0028F9D13FE065
:1015300003E09DF8000000F075F86946284800F0C7
:101540006AFC0028F5D133E003E09DF8000000F0CC
:1015500053F96946234800F05EFC0028F5D127E0E6
:10156000FFF79CFE24E0204802F022FE1F4908807D
:1015700005E01E480088A0F561601C4908801B48F2
:101580000088B0F5616FF4DA12E017480838007C83
:10159000022806D11448093002F002FE00B21449B4
:1015A000088005E010480838007E012800D100BFFF
:1015B00000BF104850F82400074909680840064950
:1015C0000860601CC4B2062C9ADD0348006800283D
:1015D00092D138BDB44C0008040500202408002036
:1015E00034080020540800208C0900201405002035
:1015F00012050020344D000810B50020064908608F
:101600000649087007210648FFF71AFCFFF734FF68
:10161000FFF7D4FE10BD00000405002000050020E7
:101620001605002010B504460F48007870B903F085
:101630004FFA0A300D49086000200D4908700D4826
:10164000097844540120084908700BE008480078E4
:10165000C82807DA06480078401CC0B20449087060
:1016600004490C5410BD00005906002060060020FB
:1016700058060020580A002010B559480078002864
:1016800074D05848006803F029FA00286ED15648F3
:101690004078032808D154488078012803D1524863
:1016A00000795249087097E04F4840780C280CD1D7
:1016B0004D4880780128F6D14B48C0780128F2D1F6
:1016C000494800794949087086E0474840780E2823
:1016D00008D145488078012804D14348007943491E
:1016E000087079E0404840780D2858D13E4880780D
:1016F000032854D13C48C07801281BD13A480079CE
:10170000012806D0022808D003280AD0042810D1C6
:101710000BE00920354908700BE00A2033490870B6
:1017200007E00B203149087003E00C202F490870B6
:1017300000BF51E02C48C07802284DD12A480079DA
:10174000012807D128484079012803D111202749D1
:10175000087041E024480079022808D122484079E5
:10176000022804D122202149087035E037E01E48C4
:101770000079012807D11C484079022803D11220A2
:101780001A49087028E018480079022824D1164820
:101790004079012820D12120144908701CE012480A
:1017A000007855280CD110484078022808D1322200
:1017B0000D490F48FEF704FD01200E4908700BE0AB
:1017C00009484078062807D107488078012803D1C6
:1017D0000548C0780549087000200149087010BD0F
:1017E0005B06002064060020200B0020E20400209D
:1017F000CA0700205D06002010B504460F48007897
:1018000070B903F065F90A300D49086000200D49F0
:1018100008700D48097844540120084908700BE00D
:1018200008480078C82807DA06480078401CC0B28B
:101830000449087004490C5410BD00005B060020E8
:10184000640600205A060020200B00207FB50546C4
:101850000C460121202001F0F1FC0295ADF8044076
:101860000020ADF80600ADF80C008DF80E0001A9BF
:101870000D4802F033FA37208DF8000000208DF873
:10188000010004208DF8020001208DF80300684655
:1018900001F026F901221146034802F015FA012150
:1018A000014802F0F4F97FBD0014004010B5FFF7C5
:1018B0001FFEFFF7FDFC10BD70B504460D4601F09C
:1018C00003FE002010490870104908701049087084
:1018D0001049087010490870012010490870002054
:1018E0000F4908700F4805800F48046000684142A6
:1018F0000D480068404200F062F900BF02480078DD
:101900000328FBD170BD0000E2040020DB040020AE
:10191000D8040020D9040020DA040020DC040020D0
:10192000DD040020F0040020EC04002070B5044623
:101930000D4601F0C9FD00200E49087001200E4936
:10194000087000200D4908700D4908700D49087095
:101950000D4908700D4908700D4805800D48046058
:101960000168006800F02BF900BF024800780328E6
:10197000FBD170BDE2040020DB040020D80400206D
:10198000D9040020DA040020DC040020DD0400205B
:10199000F0040020EC04002070B504460D466420DD
:1019A00003F04AF82146604201F09AFF284603F00E
:1019B00043F80021084601F093FF642003F03CF84F
:1019C00070BD000010B50446642003F035F8002017
:1019D0000F4908700F49087001200F490870002056
:1019E0000E4908700E4908700E4908700E490870BB
:1019F0000E48046001680068404200F0E0F800BF53
:101A0000034800780228FBD1642003F015F810BDCC
:101A1000E2040020DB040020D8040020D9040020C8
:101A2000DA040020DC040020DD040020EC040020A7
:101A300070B504460D46642002F0FEFF6142204668
:101A400001F04EFF284602F0F7FF0021084601F0A2
:101A500047FF642002F0F0FF70BD000010B504469F
:101A6000642002F0E9FF0020104908701049087056
:101A70001049087001201049087000200F490870B3
:101A80000F4908700F4908700F4804600068414210
:101A90000D48006800F093F800BF04480078022861
:101AA000FBD1642002F0C8FF10BD0000E20400205A
:101AB000DB040020D8040020D9040020DA04002030
:101AC000DC040020DD040020EC04002010B50446F6
:101AD00000200D4908700D4908700D4908700D4926
:101AE00008700D4908700D49087001200C490870F4
:101AF0000C4804600168006800F061F800BF02480B
:101B000000780128FBD110BDE2040020DB04002096
:101B1000D8040020D9040020DA040020DC040020CE
:101B2000DD040020EC0400201CB501214FF4C0703E
:101B300001F074FBF020009000208DF804000120DB
:101B40008DF807006946144800F0A5F94FF470407D
:101B5000009001208DF8040000208DF8060001207F
:101B60008DF8070003208DF8050069460B4800F04A
:101B700092F92020009001208DF8040000208DF8BB
:101B8000060001208DF8070003208DF80500694646
:101B9000024800F080F91CBD00200240001C0240F9
:101BA00070B505460C460026284601F01AFC06468C
:101BB00026EA0401284602F0BDFE002070BD70B583
:101BC00005460C46002D06DB642D00DD6425052D41
:101BD0000BDA052509E015F1640F01DA6FF06305F2
:101BE00015F1050F01DD6FF00405002C06DB642CF8
:101BF00000DD6424052C0BDA052409E014F1640FE0
:101C000001DA6FF0630414F1050F01DD6FF00404D5
:101C10002146284601F064FE70BD000010B510207A
:101C200000F03CF8012825D11021134800F09EF95E
:101C3000E8B90021114802F02AF8114890ED000A95
:101C4000B8EE400A0F4880ED000AD0ED000A9FED83
:101C50000E1AB3EE040A10EE810A80ED000A90ED30
:101C6000000ABCEEC00A10EE100A084908801020D5
:101C700000F00EF810BD000000040240001000400B
:101C80001403002010030020F628DC3F1803002076
:101C90000149086070470000143C014001460020E3
:101CA000034A12680A400AB1012000E00020704790
:101CB000143C0140002123498279002A3AD00A4687
:101CC000126803689A430B461A600A1D126803687B
:101CD0009A430B1D1A60027911440A6803681A437B
:101CE0000A60184A0832126803689A43154B083391
:101CF0001A601A1D126803689A43124B0C331A605B
:101D00004279102A0ED11A1F126803681A430D4B2C
:101D100008331A601A1D126803681A43094B0C3302
:101D20001A600DE00749427911440A6803681A43B2
:101D30000A6005E0027911440A6803689A430A6060
:101D400070470000003C014010B500F00FFFFEF7A7
:101D500027FC10BDF0B507460C461646002564B1B9
:101D600006E06119384600F056F800B904E06D1C31
:101D7000301EA6F10106F4D100BF2846F0BDF0B533
:101D800007460D461646002406E0295D384600F059
:101D90006CF800B904E0641C301EA6F10106F4D111
:101DA00000BF2046F0BD30B504460025204600F0B7
:101DB0004AF870B1D4E90001401E814203D1A06805
:101DC00038B1012505E0D4E90101401C814200D071
:101DD0000125284630BD30B504460025204600F0D8
:101DE00032F820B1D4E90110884200D001252846FC
:101DF00030BD70B504460D4664B12068012809D98C
:101E00000020A0602068401E60602A462168E068CB
:101E1000FEF7E8F970BD70B504460D46002685B1A1
:101E20002046FFF7C0FF60B16068401C6060216819
:101E3000884201D3002060606168E068405C2870DF
:101E40000126304670BD0146002069B10A68012AAA
:101E50000AD9CA6842B10B688A689A4204D2D1E9A9
:101E600000329A4200D20120704770B504460D46F8
:101E700000262046FFF7AFFF58B1A168481CA060BC
:101E8000E06845542168A068884201D30020A06022
:101E90000126304670BDF0B50A460021002300241B
:101EA00000BF3DE0012505FA01F3156805EA0304CA
:101EB0009C4234D105684F000326BE40B5430560FF
:101EC00015794E00B5400668354305601579012D3A
:101ED00002D01579022D16D185684F000326BE4029
:101EE000B543856055794E00B540866835438560B9
:101EF000456801268E40B5434560456896798E4019
:101F0000B6B235434560C5684F000326BE40B543B1
:101F1000C560D5794E00B540C6683543C560491CDB
:101F20001029BFD3F0BDF0B5002300244D07ED0EFE
:101F300002FA05F3CE1000F1200555F826504E07A1
:101F4000F70E0F26BE40B543CF1000F1200646F82D
:101F50002750CE1000F1200555F8265045EA03041D
:101F6000CE1000F1200545F82640F0BD02460020C5
:101F700013690B400BB1012000E000207047418342
:101F8000704701837047000070B504460D469620E7
:101F90004B49088000204B4908808EE04848008863
:101FA000401C474908800A2002F046FD444800884A
:101FB000502190FBF1F201FB120050B9422C04D1E8
:101FC0000821414801F0B6FC03E008213F4801F038
:101FD000B1FC3B480088C82853DD00203849088000
:101FE00038480088401C37490880412C06D1012D13
:101FF00004D10821364801F09DFC42E0412C06D175
:10200000022D04D10821334801F094FC39E0412C21
:1020100006D1032D04D108212F4801F08BFC30E0BC
:10202000412C06D1042D04D108212C4801F082FC5A
:1020300027E0422C06D1012D04D10821284801F0C7
:1020400079FC1EE0422C06D1022D04D1082125483E
:1020500001F070FC15E0422C06D1032D04D10821BB
:10206000214801F067FC0CE0422C06D1042D04D17C
:1020700008211A4801F05EFC03E00821144801F031
:1020800059FC1A480078012817D100201749087018
:1020900017480078552810D1154840780D280CD1E4
:1020A00013488078032808D11148C078012804D14A
:1020B0000F480079A84200D100E06FE700BF70BD73
:1020C000B6040020B80400206A0400203A0400206E
:1020D0001A040020220400202A04002032040020D8
:1020E0004A040020520400205A0400205B0600200D
:1020F000200B002010B50446552027490870032006
:102100004870102088702078C87060780871A078B6
:1021100048718978204AD27811441F4A12791144B3
:102120001D4A52798818C11700EB11610912A0EB02
:102130000121194A9171BB201146C871082110462E
:1021400001F0F8FB4FF4C87002F076FC1120124940
:102150008870E078C8702079087160794871897852
:102160000D4AD27811440C4A127911440A4A527924
:102170008818C11700EB11610912A0EB0121064A72
:102180009171BB201146C8710821104601F0D2FBA5
:10219000642002F051FC10BDA20400200146002082
:1021A00021B107290AD008290ED10AE0074A52783E
:1021B000064B1B7802EB032290B205E0034A5078ED
:1021C00002E0024A107800BF00BF704710050020EF
:1021D00010B515480078012810D101F051F91349C4
:1021E000098888421EDB00200F490870032010492F
:1021F00008700021084601F073FB13E00D480078D9
:1022000001280FD101F03CF908490988884209DB0F
:10221000002008490870032005490870002108467D
:1022200001F05EFB10BD0000DB040020F004002084
:10223000E2040020DC04002000B589B00121212047
:1022400000F0ECFF09220B214248FFF76CFE092247
:102250000C214048FFF767FE4FF4C0500790022062
:102260008DF820008DF8210000208DF8220001203B
:102270008DF8230007A93748FFF70DFE4FF4806063
:10228000079001208DF8200002208DF82100002009
:102290008DF8220001208DF8230007A92E48FFF7B2
:1022A000FAFD002000F05EF80121480600F0C6FFAC
:1022B0002A48FEF7EFFA00208DF8160001208DF86D
:1022C000170000208DF8180001208DF8190000205B
:1022D0008DF81A0001208DF81B0000208DF81200E7
:1022E0008DF8130001208DF8140002208DF81500E0
:1022F0000720ADF8100004A91848FEF774FB002071
:102300008DF80A008DF80B0001208DF80C000020DC
:10231000ADF80000ADF80200ADF80400ADF806001D
:10232000ADF8080001208DF80D006846FEF7CEFAE2
:1023300012200B4908604860002048720872012092
:102340008872002202210548FEF744FBFFF754F98A
:1023500009B000BD000002400014024000640040CB
:10236000300A002010B504462CB94FF480610548AE
:10237000FFF705FE04E04FF480610248FFF701FE1D
:1023800010BD00000014024010B5FFF78FFA10BD19
:1023900010B504462CB14FF480710548FFF7F1FDEC
:1023A00004E04FF480710248FFF7E9FD10BD000022
:1023B0000020024010B54FF4E06000F0CDFBA820F3
:1023C00002F01CFB01F0E6FC00F026F8FFF7ACFB86
:1023D00002F019FAFFF730FFFEF7AEF901F0DEF96F
:1023E000FFF7B2FC02F0A0F853210720FFF72EFA06
:1023F000A72140F2E73002F0BDFBA72140F2E73011
:1024000001F000FD01F002F810BD0000014A10705B
:1024100051707047100500201CB50121202000F0EC
:10242000FDFE4FF40060009001208DF804000020B4
:102430008DF8060001208DF8070003208DF80500B7
:1024400069460348FFF727FD0120024908601CBDCB
:1024500000140240AC8242422DE9F0410746884612
:10246000002028490860092002F0E6FA01202649E8
:10247000C1F8AC02042002F0DFFA4FF40C7002F055
:1024800001FB00242EE0002528E0385D284100F003
:10249000010676B900201B4908604FF4FA7002F07B
:1024A000F1FA01201849C1F8AC024FF4FA7002F0B9
:1024B000E9FA012E10D10020124908604FF4FA7099
:1024C00002F0E0FA01201049C1F8AC0202F0B4FABF
:1024D0004FF4487002F0D6FA681CC5B2082DD4DB60
:1024E000601CC4B24445CEDB0020064908604FF4AE
:1024F0000C7002F0C7FA01200349C1F8AC02BDE834
:10250000F0810000AC8242420080424210B500F0EF
:10251000DAFC08B1FE2010BD00F066FB022002F0DC
:102520008BFA00F067FB412000F0ACFA08B1FE2006
:10253000F1E70120014908700020ECE75403002076
:1025400008B5FD48006800287DD10A2002F074FA21
:10255000F94800680028F7D1F848006808B9012058
:1025600000E00020F54908600020034601223021E8
:102570000090412001F002FB322002F05DFA0020C1
:102580000346012230210090412001F0F7FA322069
:1025900002F052FA0821EA4801F0CCF9322002F0A8
:1025A0004BFAE8480078FFF791FAE7480188E548D8
:1025B0000078FFF7BBF9E5480078FFF703FAE14838
:1025C0000078FFF783FAE0480188DE480078FFF7DB
:1025D000ADF9DE480078FFF741FA0821DC4801F048
:1025E000A9F9962002F028FA1BE00821D94801F049
:1025F000A1F9142002F020FAFFF73EF80521D64891
:102600000078FDF708FE012804D10021084601F0FA
:1026100067F906E00521D0480078FDF7FCFD00B918
:1026200000E0E2E700BFCDA0FFF764FDC5480078F9
:10263000FFF74CFAC4480188C2480078FFF776F9E2
:102640000821C84800E0F8E001F074F9BF480078BC
:10265000FFF704FABB480078FFF738FABA48018858
:10266000B8480078FFF762F94FF4C8715A20FFF7B5
:10267000DFF90520BC49087000BF00F07FFFBB49AF
:1026800008700846007838B9B7480078401EC0B2D4
:10269000B54908700028F0D1322002F0CDF90821A8
:1026A000B34801F047F9322002F0C6F90821B048DA
:1026B00001F040F94FF4C8715A20FFF76DF9A348B3
:1026C0000078FFF77FF99F480078FFF7FFF99E48F1
:1026D00001889C480078FFF729F94FF4C8715A2007
:1026E000FFF7A6F94FF4FA7002F0A6F90621A14807
:1026F000FFF7B2FEC82002F09FF94FF4C8715A20CC
:10270000FFF74AF991480078FFF75CF98D480078A7
:10271000FFF7DCF98C4801888A480078FFF706F952
:102720008A480078FFF79AF904219348FFF794FE4E
:102730004FF4FA7002F080F984480078FFF742F90C
:1027400080480078FFF7C2F97F4801887D4800780B
:10275000FFF7ECF87D480078FFF780F902F092F877
:1027600086480088864908800846008800F046F9B7
:10277000642002F061F98248008800F03FF90123EB
:1027800033225221542000F001F970480078FFF7FD
:1027900019F96E480078FFF715F96A480078FFF7D5
:1027A00095F96948018867480078FFF7BFF86548E0
:1027B0000078FFF78BF96448018862480078FFF7DA
:1027C000B5F84FF4C8715A20FFF7E6F832224221DB
:1027D00062A000F083FE4FF4C8715A20FFF7DCF8C6
:1027E00001214120FFF7D0FB08E00821654801F0F6
:1027F000A1F8642002F020F9FEF73EFF5648007869
:102800000928F2D164214F480078FFF755F84D4868
:102810000078FFF75BF94FF496614A480078FFF7BC
:102820004BF804214120FFF7AFFB0020034602468E
:1028300030210090422001F0A1F93F48001D0068BE
:1028400070BB0A2002F0F8F83B48001D006838BB56
:102850003A48001D006808B9012000E0002037490F
:10286000091D08600020034601223021009041200C
:1028700001F084F9642002F0DFF800200346012211
:1028800030210090412001F079F9642002F0D4F861
:1028900008212B4801F04EF845213B4800F0A8FFE5
:1028A00025480830006810BB0A2002F0C5F822480D
:1028B00008300068D8B921480830006808B90120FC
:1028C00000E000201D490831086000200346022274
:1028D00010210090412001F051F90321282000F03F
:1028E00099FB00BF1448083000680028FAD012484D
:1028F0000C300068F8B90A2002F09EF80E480C303F
:102900000068C0B903201849087000BF00F036FE07
:10291000164908700846007838B913480078401EF8
:10292000C0B2114908700028F0D100BF02480C3035
:1029300000680028FAD008BD10024442B082434229
:10294000A001002074010020760100207501002004
:102950002400002034000020E20400203534353209
:10296000333300002C0000208B0100208A0100205E
:10297000940000200C000020040000201803002018
:102980008E010020B40000202F0100202DE9F0412D
:1029900004460D4616461F46552017490870042068
:1029A0004870012F02D10120887002E002201249F4
:1029B00088701148C47005714671014689780246D5
:1029C000D27811440246127911440246527988188D
:1029D000C11700EB11610912A0EB0121064A9171A8
:1029E000BB201146C8710821104600F0A3FF6420E7
:1029F00002F022F8BDE8F081A204002010B50446E0
:102A000055201F4908700420487088700020C87045
:102A1000642094FBF0F00A2190FBF1F201FB12001C
:102A2000174908710A2094FBF0F100FB114194FB57
:102A3000F0F00A2290FBF2F302FB130001EB00100E
:102A40000F49487189780E4AD27811440C4A12799C
:102A500011440B4A52798818C11700EB1161091211
:102A6000A0EB0121064A9171BB201146C8710821D3
:102A7000104600F05FFF642001F0DEFF10BD000093
:102A8000A204002010B50446412C25D10821084697
:102A9000FFF786F83D21112001F04CFF8621172019
:102AA00001F048FF7F21262001F044FF1E212D2048
:102AB00001F040FF00212C2001F03CFF8D212A2055
:102AC00001F038FF3E212B2001F034FF0A2001F0F5
:102AD000B3FF00F08FF801E0FF2010BD0020FCE7FD
:102AE00070B5002100230F22C4781CB3174C246852
:102AF00004F4E064C4F5E064C4F30721C1F1040404
:102B0000E3B20A4144789C40E1B284781440214306
:102B10000C07210E0E4C05786155047804F01F0552
:102B20000124AC4005786D11AD0005F1E025C5F834
:102B3000004109E0047804F01F050124AC40054D74
:102B40000678761145F8264070BD00000CED00E0D7
:102B500000E400E080E100E002490143024A116024
:102B6000704700000000FA050CED00E010B52DEDF7
:102B7000048BB0EE080A164880ED000A90ED000ABA
:102B8000DFED140A20EE200A80ED000A9FED120A04
:102B9000124880ED000A90ED000ADFED0E0A20EEEB
:102BA000200A10EE101A0846FDF7B2FB41EC190B93
:102BB0009FED0B0B53EC102BFDF73BFB41EC180B7F
:102BC000FDF7B9FB05490860BDEC048B10BD0000A2
:102BD000280300200000C84200CC0D41240300203F
:102BE000000000000070A74010B503211420FEF77C
:102BF000D7FF10BD10B5142000F0F3FB044604F01D
:102C0000030018B90321142000F0BAFE10BDF0B57E
:102C100087B00546002708210846FEF7C1FF0021BE
:102C20000D2001F087FE80210E20FEF7B9FF9320D2
:102C30008DF8040020208DF8050006A801AB0222C3
:102C400001A900900C2000F051F8064686B9002436
:102C500007E001A8005D285501A8005D4740601C01
:102C6000C4B2042CF5DB01A8005DB84200D0FE26FA
:102C700080210E2000F084FE304607B0F0BD2DE923
:102C8000F04387B006460F46904699468DF804609B
:102C90008DF80570002406E018F8041001AAA01CA5
:102CA0001154601CC4B2062CF6DB002407E019F8AE
:102CB000041001AA04F108001154601CC4B2062CCF
:102CC000F5DB06A801AB0C2201A900900E2000F054
:102CD0000DF805462DB9082000F083FB00F0080030
:102CE00000B9FE25284607B0BDE8F0832DE9FE4F68
:102CF0000646884691469A46DDF830B0FE2002909E
:102D00000020019000900C2E06D00E2E09D112202A
:102D100001901020009005E0772001903020009075
:102D200000E000BF00BF019840F08001022001F0E8
:102D300001FE80210420FEF733FF0021012001F075
:102D4000F9FD80210A2000F01BFE002505E018F89F
:102D50000510092001F0EEFD6D1C4D45F7D33146FD
:102D6000012001F0E7FD0C2E03D180210D2000F0A1
:102D700007FE4FF4167500BF042000F032FB044636
:102D80006D1E35B104F0010018B9009820400028EC
:102D9000F2D080210D20FEF703FF95B3062000F04E
:102DA00020FB00F01B0068BB00200290019820402F
:102DB00000F0010008B1FF2002900C2E24D10A205F
:102DC00000F00FFB04460C2000F00BFB00F007079F
:102DD0002FB1601E07EBC000CBF8000002E0E0005E
:102DE000CBF8000004B90124122C00DD12240025C8
:102DF00005E0092000F0F5FA0AF805006D1CA5426F
:102E0000F7D301E0FE20029080210C2000F0B8FDF5
:102E10000021012001F08EFD0298BDE8FE8FF0B583
:102E200087B005460E4630208DF804008DF8055019
:102E30000DF10602022101A8FDF7CAFF06A801ABA9
:102E4000042201A900900C20FFF750FF074667B944
:102E50000698902809D1002404E001A8005D3055AF
:102E6000601CC4B2102CF8DB00E0FE27384607B027
:102E7000F0BD70B588B005460C4608210846FEF73F
:102E80008FFE07210D2001F055FD0321142000F0D5
:102E900077FD8DF8085007A802AB012202A9009027
:102EA0000C20FFF723FF06464EB90798102806D1DD
:102EB0009DF8080020709DF80900607000E0FE2673
:102EC000304608B070BD10B500F06CFA08B1FE20B5
:102ED00010BD0F21012001F02DFD3D21112001F039
:102EE00029FD1E212D2001F025FD00212C2001F0BF
:102EF00021FD8D212A2001F01DFD3E212B2001F016
:102F000019FD4021152001F015FD0020E0E770B506
:102F100088B0054693208DF8080070208DF80900D0
:102F200000208DF80E0000240BE0295D02AAA01CF1
:102F300011549DF80E00295D48408DF80E00601C6C
:102F4000C4B2042CF1DB0DF10F02072102A8FDF73A
:102F50003FFF08210846FEF723FE07A802AB09221F
:102F600002A900900C20FFF7C1FE064626B907987B
:102F7000182801D1002600E0FE26304608B070BDBA
:102F8000F0B587B006460F46A0208DF804008DF8F6
:102F900005600DF10602022101A8FDF719FF06A840
:102FA00001AB042201A900900C20FFF79FFE05460B
:102FB00045B90698042805D19DF8040000F00F00DB
:102FC0000A2800D0FE250DBB002404E0385D01A9CD
:102FD0000855601CC4B2102CF8DB05AA102101A80A
:102FE000FDF7F6FE06A801AB122201A900900C2005
:102FF000FFF77CFE054645B90698042805D19DF8E3
:10300000040000F00F000A2800D0FE25284607B073
:10301000F0BD000070B504460D462046E11704EBF4
:1030200091718910032202EB8101CEB200203D494B
:1030300008603D49C1F8B4023A49083108603A498C
:10304000C1F8BC0239495220FFF713FF002868D1AC
:103050000120344908603648FFF7D9FD002860D1C7
:1030600001203049091D08603148FFF750FF002852
:1030700057D101202B49083108602D4B2D4A31468C
:103080006020FFF7FCFD00284BD1012025490C31C1
:1030900008600A2094FBF0F00A2190FBF1F201FB9A
:1030A00012003030244988720A2094FBF0F100FBB2
:1030B000114030302049C8720E211F4800F002FC38
:1030C000B44204D100250D211CA000F0FBFB022D11
:1030D00001D0032D08D11D492046FFF751FF18B933
:1030E00011211BA000F0EEFB012D01D0032D14D106
:1030F0001C492046FFF793FE78B910211AA000F072
:10310000E1FB0E211CA000F0DDFB1021154800F0B2
:10311000D9FB02211BA000F0D5FB022119A000F071
:10312000D1FB70BDB0824342008043425503002072
:10313000570300206B0300207703002041444452D2
:10314000204552524F52210A000000005B0300202C
:1031500057524954455F52464944202D204F4B0A4F
:103160000000000088070020524541445F52464954
:1031700044202D204F4B0A004441544128415343E1
:103180004949293A0A00000010B586B004460121D9
:10319000084600F043F80121102000F06FF80722E4
:1031A00009211B48FEF7BFFE07220A211848FEF737
:1031B000BAFE4FF4C060049002208DF81400002085
:1031C0008DF8160001208DF8170003208DF81500EA
:1031D00004A90F48FEF75FFE00940020ADF80C0034
:1031E0000C20ADF80A000020ADF80800ADF806008C
:1031F000ADF804006946074801F022F901210548AD
:1032000001F0B6F800200449087006B010BD0000B7
:1032100000000240001001405403002029B1064A7A
:1032200012680243044B1A6004E0034A12688243A6
:10323000014B1A60704700003038024029B1064A3D
:1032400012680243044B1A6004E0034A1268824386
:10325000014B1A60704700004038024029B1064A0D
:1032600012680243044B1A6004E0034A1268824366
:10327000014B1A60704700002038024029B1064A0D
:1032800012680243044B1A6004E0034A1268824346
:10329000014B1A60704700004438024029B1064AC9
:1032A00012680243044B1A6004E0034A1268824326
:1032B000014B1A607047000024380240F0B500212D
:1032C00000220024022500260223324F3F6807F027
:1032D0000C0121B1042905D0082937D105E02E4F72
:1032E000076036E02D4F076033E02A4F3F1F3F68ED
:1032F000C7F38056274F3F1F3F6807F03F036EB16B
:10330000264FB7FBF3F7DFF88CC0ACF1040CDCF808
:1033100000C0CCF3881C07FB0CF40CE01E4FB7FB7D
:10332000F3F7DFF870C0ACF1040CDCF800C0CCF3AC
:10333000881C07FB0CF4174F3F1F3F68C7F301477A
:103340007F1C7D00B4FBF5F7076002E0124F0760B9
:1033500000BF00BF0F4F3F6807F0F0010909104F91
:103360007A5C0768D74047600A4F3F6807F4E0512E
:10337000890A0B4F7A5C4768D7408760054F3F68E2
:1033800007F46041490B064F7A5C4768D740C76035
:10339000F0BD0000083802400024F40040787D01B0
:1033A000C804002038B5FE2500200090002400BF8E
:1033B00012E0552000F0CAFA42F21071684600F09F
:1033C00031F838B9552000F0C1FA642001F034FB1F
:1033D000002503E0601C84B2642CEADB00BF68B205
:1033E00038BD38B5044604F03F0040F08004204664
:1033F00000F0ACFA42F21071684600F013F805468E
:103400000DB1FF2038BD9DF80000FBE710B54FF46B
:103410001650FFF7B9FE4FF4FA7001F00DFBFFF7FD
:1034200075F810BD70B504460D4601F051FB4FF420
:10343000FA61B5FBF1F146180AE00A48008800F08D
:10344000200028B1074801F065F82070002070BD09
:10345000304601F043FB0028EFD1034908700120FA
:10346000F5E70000001001405403002010B5FEF7FE
:10347000AFFE01F0CDFB01F0ADFB00F0F3FC10BDA1
:103480000F48B0F900000F4AB2F90020904207DD62
:103490000B48B0F900000B4AB2F90020811A06E08F
:1034A0000848B0F90000064AB2F90020811AB1F5C7
:1034B000004F02D94FF6FF70411A88B270470000E2
:1034C00012050020F80400200248B0F9000002496B
:1034D0000880704712050020F804002070B50446EB
:1034E0000D461646FF2012490870202048702078AB
:1034F00088706078C870A0780871E07848710621FB
:103500000B48FEF7A9FF4FF4FA7001F095FA10206E
:1035100007494870207988706079C870084605713D
:1035200046710621FEF798FF0A2001F085FA70BD6A
:10353000AA0400201CB58020009000208DF8040013
:1035400001208DF8070069460148FEF7A4FC1CBD68
:10355000000402401CB58020009001208DF804007A
:1035600000208DF8060003208DF80500694602480A
:10357000FEF791FC1CBD00000004024010B50024C1
:1035800000BF00F091FA4648C0784F2871D105215C
:10359000444800F02DF90421434800F0DFF8424888
:1035A000C07841287AD141480068C0434049C1F8F9
:1035B000B002C82001F040FA0121202001F0E4F916
:1035C0000321394800F0CAF837480078FC2865D153
:1035D0003648001D0068C0433549C1F8B40232487E
:1035E0008178344800F0BAF832480078012804D0D5
:1035F000022846D004284CD147E02E48407965384F
:103600000F2837D2DFE800F0080C101418363636D1
:1036100036361C21262B300027A000F0F7F82EE0CC
:1036200028A000F0F3F82AE029A000F0EFF826E047
:103630002AA000F0EBF822E02BA000F0E7F81EE053
:103640002CA000F0E3F8012419E02DA000F0DEF832
:10365000022414E02DA000F0D9F803240FE02EA0DE
:1036600000F0D4F804240AE02EA000F0CFF80524DE
:1036700005E013E000242EA000F0C8F800BF00BF52
:103680000BE02EA000F0C2F807E02FA000F0BEF87B
:1036900003E02FA000F0BAF800BF00BF204610BD25
:1036A000D6020020E3020020CC020020B082434278
:1036B00000804342D0020020CFF2D3D2D7AACDE47B
:1036C00000000000BDFBD6B9D3D2D7AA000000008D
:1036D000D7F3B2E0D0D0CABB00000000D7F3D0D0FF
:1036E000B1BBBDFB00000000D4ADB5D8B5F4CDB77B
:1036F00000000000C3C0BAC3C9FABBEE000000005E
:10370000D0E3C0F6C9BDBAD300000000D7B7D6F0E9
:10371000C3CECFEB00000000D1EFB7ABC6F4BABD0B
:1037200000000000C6EBCDB7B2A2BDF8000000005B
:10373000C3FCC1EE4944B4EDCEF30000CEDEC3FCC1
:10374000C1EE494400000000C7EBB0B2BEB20000B9
:10375000CED2C3BBCCFDC7E50000000070B5054666
:103760000E46002404E000F007F82855601CC4B29F
:10377000B442F8DB70BD000010B5002400BF20216A
:10378000054800F001FE0028F9D0034800F0C2FE11
:10379000C4B2204610BD0000001401401CB54FF417
:1037A000E13000F081FD01210220FFF737FD4FF4E9
:1037B0000070009001208DF8040000208DF80600B4
:1037C00001208DF8070003208DF8050069460448A4
:1037D000FEF761FB4FF400710148FEF7D2FB1CBD00
:1037E0000004024010B50446204600F0C7FC10BD9E
:1037F00070B505460E46002404E0285DFFF7F2FF91
:10380000601CC4B2B442F8DB70BD00007CB5054654
:103810002846FCF7F9FCC4B2FD208DF8000000201A
:103820008DF80100A01CC0B28DF8020001208DF8B7
:10383000030000208DF8040005216846FFF7D8FF3B
:1038400021462846FFF7D4FF04210D48FFF786FFE5
:1038500003E004210A48FFF781FF0948C0784128A6
:10386000F7D104210648FFF779FF03E0042104485B
:10387000FFF774FF0248C0784F28F7D17CBD0000E5
:10388000CC02002030B500228B071C0F0F2303FA57
:1038900004F20B4B8C1053F824309343084C8D10DA
:1038A00044F8253023468C1053F824308C07240F1D
:1038B00000FA04F42343024C8D1044F8253030BD47
:1038C0000838014070B504460D462A462146034893
:1038D000FEF755FA642001F0AFF870BD240800200F
:1038E0007CB504460D46E0B28DF80400E0B28DF8D8
:1038F0000500E8B28DF80600E8B28DF80700FDF784
:103900005FFC78B10020034620220421009001A82A
:10391000FDF71CFC00202023024601A90090FDF7C2
:1039200081FD06E000202023042201A90090FDF77C
:1039300079FD7CBD70B504460D462A4621460248F5
:10394000FEF71DFA70BD00006408002010B50446A3
:103950000A48008800BF0948008800F0800001285C
:10396000F9D02146054800F0DAFD00BF40210348A8
:1039700000F00AFD0128F9D110BD0000001001403F
:1039800070B505460C4600262846FFF72AFD064678
:1039900046EA0401284600F0CDFF002070BD00007B
:1039A0000CB50020019000903448006840F480304D
:1039B0003249086000BF3148006800F400300090D0
:1039C0000198401C0190009818B90198B0F5A04FDB
:1039D000F1D12A48006800F4003010B101200090B5
:1039E00001E0002000900098012846D12348403093
:1039F000006840F08050214940310860204800684C
:103A000040F440401E4908601C48083000681B49CB
:103A1000083108600846006840F400400860084625
:103A2000006840F4A05008601648091F0860081F8D
:103A3000006840F08070091F086000BF0F480068F0
:103A400000F000700028F9D040F205700E490860BF
:103A50000A480830006820F003000849083108606F
:103A60000846006840F00200086000BF03480830C4
:103A7000006800F00C000828F8D10CBD00380240A6
:103A80000070004019544007003C024010B5044645
:103A9000FCF7CCFE4620FCF79DFE2046FCF79AFE84
:103AA000FCF7E0FE10BD000008B5FD208DF8000019
:103AB00000208DF8010001208DF8020021208DF8F2
:103AC000030004216846FFF793FE04210548FFF731
:103AD00045FE0448C078412803D104210248FFF77D
:103AE0003DFE08BDCC020020D6020020042808D1EB
:103AF0004FF0E021096941F004014FF0E02211612B
:103B000007E04FF0E021096921F004014FF0E022C5
:103B10001161704710B51548006840F470001349F2
:103B200008601348006840F0010011490860002057
:103B30000F49083108600E4800680E4908400C49DA
:103B400008600D48091D0860081F006820F48020E7
:103B5000091F0860002006490C310860FFF720FFAC
:103B60004FF0006001498039086010BD88ED00E029
:103B700000380240FFFFF6FE103000242DE9F0412E
:103B800004460D4616461F46DDF818805520174995
:103B90000870422C02D10820487002E00B20134923
:103BA000487012488570C670077180F8058001461C
:103BB00089780246D27811440246127911440246AD
:103BC00052798818C11700EB11610912A0EB01218D
:103BD000064A9171BB201146C87108211046FFF7B3
:103BE000A9FE642000F028FFBDE8F081A2040020B7
:103BF00010B50121054800F056F8012801D1FFF762
:103C000035FC0121014800F03FF810BD00400140A3
:103C100010B50121074800F046F8012804D10648F4
:103C20000068401C044908600121024800F02CF89B
:103C300010BD000000440140C004002010B5012167
:103C4000074800F030F8012804D106480068401CFD
:103C5000044908600121024800F016F810BD000078
:103C6000001000401403002010B50121054800F0A9
:103C70001AF8012801D1FEF787FB0121014800F065
:103C800003F810BD00140040CA430282704721B1FE
:103C9000028842F00102028004E002884FF6FE73BF
:103CA0001A400280704730B50246002000230024ED
:103CB000158A05EA0103958905EA010413B10CB1DF
:103CC000012000E0002030BD1AB183890B438381BD
:103CD00002E083898B4383817047000000220288C1
:103CE000184B98420ED0184B98420BD0B0F1804F31
:103CF00008D0164B984205D0154B984202D0154B70
:103D0000984204D14FF68F731A404B881A43124BD6
:103D1000984207D0114B984204D04FF6FF431A4007
:103D20000B891A4302804B68C3620B880385054BDD
:103D3000984202D0044B984201D18B7A038601232A
:103D400083827047000001400004014000040040ED
:103D500000080040000C004000100040001400402B
:103D60001CB501210420FFF759FA4FF400500090D0
:103D700001208DF804008DF8070069460448FEF71D
:103D80008AF84FF400510248FEF7FBF81CBD000012
:103D90000008024010B500F005F8FFF7E1FF00F061
:103DA00017F810BD1CB501214020FFF737FA4FF47A
:103DB0008070009000208DF8040001208DF807002D
:103DC00069460248FEF767F81CBD0000000002408B
:103DD0001CB501218020FFF721FA4FF440600090CC
:103DE00001208DF804008DF8070069460448FEF7AD
:103DF00052F84FF440610248FEF7C3F81CBD0000C2
:103E0000001C02407FB505460C4601214804FFF71F
:103E100035FA0295ADF804400020ADF80600ADF883
:103E20000C008DF80E0001A90D48FFF757FF19206F
:103E30008DF8000000208DF8010006208DF80200AA
:103E400001208DF803006846FEF74AFE0122114664
:103E50000348FFF739FF01210148FFF718FF7FBD35
:103E60000044014010B506480078012806D108201A
:103E7000FEF794F9C4B2204600F004F810BD00002B
:103E8000DD04002010B5044654B90020B349087081
:103E90000120B349087000210846FFF721FD2DE1FC
:103EA000E72C08D1AF480068AF490860AD4800680A
:103EB000AE49086022E1F72C01D0F32C0AD1A948C1
:103EC00000681430A8490860A64800682838A74947
:103ED000086013E1FB2C01D0F92C0AD1A14800683D
:103EE0002830A14908609F4800683C389F49086015
:103EF00004E1FD2C01D0FC2C0AD19A4800683C302A
:103F000099490860974800685A3898490860F5E070
:103F1000FE2C0AD1934800685030934908609148BC
:103F20000068783891490860E8E0EF2C01D0CF2C88
:103F30000AD18C48006814308C49086089480068B0
:103F4000283889490860D9E0DF2C01D09F2C0AD19C
:103F500084480068283085490860824800683C38F9
:103F600081490860CAE0BF2C01D03F2C0AD17D48AE
:103F700000683C307D4908607A4800685A387A49C0
:103F80000860BBE07F2C0AD1764800685030774942
:103F9000086074480068783873490860AEE0744877
:103FA0000078012815D104F01800182891D104F0E8
:103FB000800018B104F0010000288AD10020674970
:103FC000087001206649087000210846FFF788FC48
:103FD00094E068480078012871D1182C08D1614814
:103FE0000068614908605F4800686049086085E0D2
:103FF000082C01D00C2C0AD15A48006814305A49B8
:1040000008605848006828385849086076E0042C51
:1040100001D0062C0AD15348006828305249086064
:10402000504800683C385149086067E0022C01D0D4
:10403000032C0AD14B4800683C304B490860494882
:1040400000685A384949086058E0012C0AD14548AF
:104050000068503044490860424800687838434955
:1040600008604BE0102C01D0302C0AD13D4800688C
:1040700014303E4908603B48006828383A490860D7
:104080003CE0202C01D0602C0AD136480068283052
:1040900036490860334800683C38334908602DE0F1
:1040A000402C01D0C02C0BD12E4800683C302F4949
:1040B00008602C4800685A382B4908601EE015E05B
:1040C000802C0AD1274800685030284908602548CC
:1040D000006878382449086010E0224800682249C6
:1040E0000860204800682149086007E01D48006812
:1040F0001D4908601B4800681C490860FF2C20D13E
:104100001848006818490860164800681749086090
:1041100019480088B0F5966F0DDD0020164908801B
:1041200000210846FFF7DCFB00200C490870042042
:104130000B49087008E010480088401C0E490880B0
:1041400002E000200C4908800448007828B10748A4
:10415000016805480068FDF732FD10BDDD04002050
:10416000E2040020EC040020E4040020E804002025
:10417000890100208D010020E004002010B50446D4
:1041800000BF8021054800F0FFF80028F9D0C4F3F3
:104190000801024800F0C3F9204610BD0014014098
:1041A000024600215178107840EA01210846704704
:1041B000024600211178507840EA012108467047F4
:1041C00010B5024800F078FA10BD00005C0700202E
:1041D00010B51248007800BB40F22551104800F09D
:1041E000E0F8012819D10E4800F094F90D490E4A63
:1041F000127888540C480078401C0B490870084617
:104200000078022804DB00200870012003490870B0
:1042100040F22551024800F09CF810BD1A0300201E
:10422000001001401C0300201B03002010B540F2C9
:104230002551184800F0B5F801282AD11648007811
:1042400090B900F045FC0A30144908600020144978
:104250000870104800F05EF91249114A127888542B
:1042600001200D4908700FE00D480078C8280BDACE
:10427000084800F04FF9C1B209480078401CC0B2AC
:10428000074A1070074A115440F22551014800F0C6
:1042900060F810BD00440040590600206006002070
:1042A00058060020580A002010B586B004460121A7
:1042B0000420FEF7B3FF01212020FEF7DFFF0822D4
:1042C00006211D48FDF72FFE082207211A48FDF799
:1042D0002AFEC020049002208DF8140000208DF8E2
:1042E000160001208DF8170003208DF8150004A991
:1042F0001148FDF7D0FD00940020ADF80C000C2013
:10430000ADF80A000020ADF80800ADF80600ADF8E1
:1043100004006946094800F093F80121074800F0BD
:1043200027F84021054800F00BF82021034800F051
:1043300007F806B010BD000000080240001401405C
:1043400001F40072B2F5007F00D100BFCA430280C1
:10435000704710B50022002340F66A14A14200D134
:1043600000BF0A1201249440A3B2DC43048010BDB4
:1043700021B1828942F40052828104E082894DF6A3
:10438000FF731A408281704702460020B1F5007F1A
:1043900000D100BF13880B400BB1012000E00020CA
:1043A000704770B50246002400230025002040F627
:1043B0006A16B14200D100BFC1F3421501F01F03DC
:1043C000012606FA03F3012D02D19689334006E057
:1043D000022D02D1168A334001E0968A33400C1236
:1043E000012606FA04F41688344013B10CB10120FA
:1043F00000E0002070BDF0B5034600240026002533
:10440000002040F66A17B94200D100BF1846C1F338
:10441000421401F01F06012707FA06F5012C01D10D
:104420000C3004E0022C01D1103000E014301AB13D
:1044300007682F43076002E00768AF430760F0BDDD
:104440002DE9FF4705460E460024A14600BFA046C1
:10445000B08900B100BF2C8A24F44054F088044392
:104460002C82AC8941F20C608443B08831890843C6
:10447000718908430443AC81AC8A24F44074B08948
:104480000443AC826846FEF719FF2048854202D0FB
:104490001F48854202D1DDF80C9001E0DDF808905C
:1044A000A88900F4004040B109EBC90000EB0910F5
:1044B00031684900B0FBF1F707E009EBC90000EBF8
:1044C000091031688900B0FBF1F76420B7FBF0F008
:1044D00004012009642101FB1078A88900F4004040
:1044E00040B1322000EBC800B0FBF1F000F0070053
:1044F000044308E0322000EB08106421B0FBF1F027
:1045000000F00F0004432C81BDE8FF87001001403C
:104510000014014001468888C0F308007047C1F3C9
:10452000080282807047000010B512481249C1F895
:10453000B00032211048C0F8B4100021C0F8B81003
:10454000C0F8BC10C0F8C0100C49C0F8C41002215B
:10455000C0F8C8100021C0F8CC10C0F8D010C0F8C6
:10456000D410042180F8D81000200549087000F00C
:1045700009F810BD78060020AC06002034030020A6
:104580003303002000B587B0012140F20910FEF787
:1045900045FE01214FF42020FEF750FE08220021A5
:1045A0004048FDF7C0FC072206213F48FDF7BBFC51
:1045B00000208DF81A0001208DF81B0002208DF8D4
:1045C00018000120059002208DF8190005A9354832
:1045D000FDF761FC02208DF818004020059005A928
:1045E0003148FDF758FC00208DF81A0001208DF8A5
:1045F0001B008DF818000002059002208DF81900AC
:1046000005A92A48FDF747FC0020FDF7C1FE4FF43D
:10461000E13001900020ADF80800ADF80A00ADF8D7
:104620000C00ADF810000820ADF80E0001A92048DC
:10463000FFF706FF01211E48FFF79AFE34208DF890
:10464000000000208DF8010002208DF802000120FA
:104650008DF803006846FEF743FA4FF4E13001900D
:104660000420ADF80E0001A91248FFF7E9FE26204C
:104670008DF8000000208DF801008DF80200012067
:104680008DF803006846FEF72BFA012240F225510F
:104690000848FFF7B0FE01210648FFF769FE07B0A2
:1046A00000BD000000000240000C0240002002405B
:1046B000004C00400044004010B5044694F8281017
:1046C000374A52F8210040F22771FFF76AFE18B30B
:1046D000E068401CE060D4E90210884209D2E16839
:1046E0002068405C94F828102D4A52F821108880E8
:1046F00009E094F828102A4A52F82100002240F2DA
:104700002771FFF778FE94F82810254A52F8210007
:1047100040F22771FFF71DFE94F82810204A52F846
:10472000210040F22551FFF73CFE30B300F0D0F9F4
:10473000606294F828001A4951F8200080881949CD
:10474000087094F82810164A52F8210040F22551BA
:10475000FFF7FFFDD4E90610884207D2114801781F
:10476000E269501CE0616069815406E00E49206AEC
:10477000884202D2206A401C206294F82810084A1D
:1047800052F821000821FFF7FFFD38B194F8280006
:10479000034951F8200080880449087010BD0000CA
:1047A0003C03002038030020F0FFFF7F3903002086
:1047B0000EB54FF4C060FEF7CFF901218803FEF774
:1047C0005DFD04210120FFF75DF81020019000201D
:1047D0008DF808000C208DF8090001208DF80A00E2
:1047E00001A8FDF767FA0A208DF8000000208DF877
:1047F000010007208DF8020001208DF803006846B3
:10480000FEF76EF90EBD10B500F008F8532109202F
:1048100000F064F8FFF7CCFF10BD00001CB50121CB
:104820000320FEF7FBFC00220E211448FDF77BFB62
:1048300000220D211148FDF776FB4FF40040009057
:1048400001208DF8040000208DF8060001208DF86D
:10485000070003208DF8050069460848FDF71BFB9B
:104860001020009000208DF8040001208DF8070032
:1048700069460348FDF70FFB1CBD00000000024025
:104880000004024010B5012010490860032000F028
:10489000F9F800200E49C1F8BC0201210D48FFF7CC
:1048A000F6F901210B48FFF7EFF900200A490860EB
:1048B0001E2000F0C1F8012004490860052000F026
:1048C000BBF800210348FFF7E2F910BDBC024042EB
:1048D0000000404200100040140300207FB5054650
:1048E0000C4601211020FEF7A9FC0295ADF804400A
:1048F0000020ADF8060001A90D48FFF7EFF93620BA
:104900008DF8000000208DF8010008208DF80200CD
:1049100001208DF803006846FEF7E2F801221146F7
:104920000348FFF7D1F900210148FFF7B0F97FBD37
:104930000010004070B504460D462946204600F0A0
:1049400001F870BDF8B504460D46032704F03F0496
:10495000002714E02046FEF7F9FF42F21071684686
:10496000FEF760FD064646B99DF80000844203D17B
:104970002846FEF7EBFF04E00226781CC7B2032F9F
:10498000E8DB00BF3046F8BD70B504460D46552043
:10499000114908700620487008468470C5700020D0
:1049A0000871487189780C4AD27811440A4A127900
:1049B0001144094A52798818C11700EB1161091294
:1049C000A0EB0121044A9171BB201146C871082156
:1049D0001046FEF7AFFF70BDA204002002E008C839
:1049E000121F08C1002AFAD170477047002001E069
:1049F00001C1121F002AFBD17047000010B5044608
:104A00006FF00400FFF772F8E11704EB5171C1F386
:104A1000C701074A11701046007800EB4001C1EB56
:104A2000C0104FF6FF7101EAC0000249088010BDB6
:104A3000BA040020BC0400200146114A12884A43EF
:104A40004FF0E0235A6100229A611A46126942F03F
:104A500001021A6100BF4FF0E022106900F001026C
:104A60001AB100F48032002AF5D04FF0E02212692A
:104A700022F001024FF0E0231A6100229A61704790
:104A8000BC0400200146114A12784A434FF0E0234B
:104A90005A6100229A611A46126942F001021A61B3
:104AA00000BF4FF0E022106900F001021AB100F4DB
:104AB0008032002AF5D04FF0E022126922F0010284
:104AC0004FF0E0231A6100229A617047BA04002077
:104AD0000148006870470000C004002004490968CC
:104AE000884203D902490968401A00E00020704753
:104AF000C004002000BF00BF00BFFDF75BFCFFF754
:104B0000E7FF323013490860FFF7E2FFC83012496F
:104B10000860FFF7DDFFC83010490860FFF7D8FFD5
:104B2000C8300F49086055200E490870AA20487007
:104B300055200D4908700220487005210BA0FEF792
:104B4000C1FE00210846FEF7CBFE01E0FDF7F8FCB0
:104B5000FCE700007C01002078010020800100209B
:104B60008401002098070020CA07002057454E0AFC
:104B7000000000007FB505460C4601210804FEF741
:104B80007DFB0295ADF804400020ADF80600ADF8BD
:104B90000C008DF80E0001A90D48FFF79FF81820B2
:104BA0008DF8000000208DF8010005208DF802002E
:104BB00001208DF803006846FDF792FF012211469F
:104BC0000348FFF781F801210148FFF760F87FBD36
:104BD0000040014010B500240A48007880B1FEF77B
:104BE0004FFC044608480088844209DB0020054940
:104BF000087002200549087000210846FEF770FE83
:104C000010BD0000DA040020F2040020E2040020BD
:104C100010B500242348007801281FD10820FDF793
:104C2000BDFA044604F0100080B91F48006832281D
:104C300037D900201B4908701B49086002201B4916
:104C4000087000210846FEF74BFE2AE0FF2C28D111
:104C500015480068401C1449086022E01448007898
:104C600001281ED10820FDF799FA044604F0080037
:104C700080B90D480068322813D900200C4908700B
:104C80000949086002200949087000210846FEF71A
:104C900027FE06E0FF2C04D103480068401C0249AF
:104CA000086010BDD8040020F4040020E2040020B5
:104CB000D9040020010000000200000004000000F0
:104CC000080000001000000020000000400000006C
:104CD000800000000001000000020000000400004D
:104CE000000800000010000000200000004000004C
:104CF000008000000000010000000200000004002D
:104D0000000008000000100000002000000040002B
:104D1000000080000000000100000002000000040C
:104D2000000000080000001000000020000000400B
:104D300000000080FEFFFFFFFDFFFFFFFBFFFFFF06
:104D4000F7FFFFFFEFFFFFFFDFFFFFFFBFFFFFFFEB
:104D50007FFFFFFFFFFEFFFFFFFDFFFFFFFBFFFFEA
:104D6000FFF7FFFFFFEFFFFFFFDFFFFFFFBFFFFFCB
:104D7000FF7FFFFFFFFFFEFFFFFFFEFFFFFFFBFFC9
:104D8000FFFFF7FFFFFFEFFFFFFFDFFFFFFFBFFFAB
:104D9000FFFF7FFFFFFFFFFEFFFFFFFDFFFFFFFBAA
:104DA000FFFFFFF7FFFFFFEFFFFFFFDFFFFFFFBF8B
:104DB000FFFFFF7F0008040C020A060E0109050D23
:104DC000030B070FE44D00080000002078060000E8
:104DD000FA040008BC4F00087806002070090000A3
:104DE000EC490008102200FF0CF300FF18E700FF59
:104DF0005EA103051445DE92673478A2FD27FF14F7
:104E000001000000FF14020610045503010D1302F7
:104E1000BB08110F120308422008130403182204D0
:104E2000085200101118200505BB550E3C12010850
:104E30003302011830040E02022830040E0203204F
:104E4000520F20520F20520F20520F20520D70523D
:104E50000D7030040D01034040040D010420515831
:104E6000520D58520530520530520530520530521D
:104E70000530520588130B10B822110811B05005E7
:104E800012BB550AE0200702A0A100004108140946
:104E9000A2000042BBFF1206041029FD000A5301C4
:104EA000D4ADC9F1C6F4B6AFFD00421F0133C6EB65
:104EB000CDB7B2A2BDF8203131307CC3C0BAC3C96E
:104EC000FABBEE0D100B317CD0E3C0F6C9BDBAD3EE
:104ED0000D100B327CD7B7D6F0C3CECFEB0D93338A
:104EE0007C012404325FC2210117011408325AA444
:104EF00001AF06006C100601BF550830AC1331BB82
:104F000008111A07FF30BBB00519B0C546100AFDDD
:104F100000025104FD000152091310030924071176
:104F2000FD001E0101C6001A31D3EFD2F4BFD8D65E
:104F3000C6BCDDCABBA3ACC7EBB7A2B3F6D6B8C13B
:104F4000EE0001100A100140004400400048041225
:104F50004C0412500C45C790123031323334353680
:104F6000373839414243444546FF01240E524649F1
:104F7000445F414444523A30310AB905FFD605270F
:104F8000D60F1600013D03200501020304040006AC
:104F90003B060708090001100AC003E0078002E091
:104FA00007A0041007E000E0070001081104ADA607
:0C4FB0000306FF30B60528B60110010012
:040000050800018965
:00000001FF
